:100000000C9434000C943E000C943E000C943E0082
:100010000C943E000C943E000C943E000C943E0068
:100020000C943E000C943E000C943E000C943E0058
:100030000C943E000C943E000C943E000C943E0048
:100040000C943E000C943E000C943E000C943E0038
:100050000C943E000C943E000C943E000C943E0028
:100060000C943E000C943E0011241FBECFEFD8E04C
:10007000DEBFCDBF0E9440000C9456000C940000DF
:10008000529884B1836084B920E931E04A9BFECF65
:1000900085B1836085B980E29EE4F9013197F1F77B
:1000A0000197D9F785B18C7F85B9F0CFF894FFCF50
:00000001FF
